:020000020000FC
:100000000E948901F1E0E4ED00C050E0059100306C
:1000100019F00E949901F9CF0E94A2010E94990152
:100020000D3619F0013649F1EDCF0AE00E94990131
:10003000F2E0EEE100C00591003019F00E94990154
:10004000FACF533079F053950E94A2010E94990192
:10005000013309F021F4089417958894F2CF88941D
:100060001795EFCF8894552717951795179507E0A3
:100070000E9499011AB91BB9D8CF0AE00E949901D0
:10008000F2E0EEE400C050E00591003019F00E946B
:100090009901F9CF533091F053950E94A2010E942B
:1000A0009901013339F019F40AE00E94990188940A
:1000B0006795F0CF089467958894ECCF0AE00E948A
:1000C0009901F2E0E8E800C050E00591003089F1C4
:1000D0000E949901F9CF0AE00E949901F2E0E4EA56
:1000E00000C050E00591003019F00E949901F9CF4D
:1000F000533091F053950E94A2010E94990101335F
:1001000021F039F40AE00E949901089487958894B7
:10011000EFCF88948795ECCF0AE00E949901F2E036
:10012000E2EC00C050E005910030B9F00E94990166
:10013000F9CF533081F253950E94A2010E94990198
:10014000013339F019F40AE00E94990188947795F7
:10015000F0CF089477958894ECCF533059F05395AD
:100160000E94A2010E949901013311F129F50AE0D0
:100170000E949901889455276795679567957795AB
:10018000779577958795879587959795979597957F
:10019000ACE1AAB900C06BB90E94DF007BB90E9434
:1001A000DF008BB90E94DF009BB90E94DF00F3CF14
:1001B000089497958894D1CF88949795CECF25E1D0
:1001C0003BE44FEB4A95F1F73A95E1F72A95D1F7E1
:1001D0000000089520446F62726F646F736C692031
:1001E000762070726F6772616D61746F726A7520CC
:1001F0006C75636B2E20497A62657269206D6F643D
:1002000065206D616E75616C20616C69206175742B
:100210006F6D61746963286D2F61293A2000204455
:100220006F62726F646F736C692076206D616E759A
:10023000616C206D6F64652D752E204E6170697341
:100240006974652070726F6772616D3A2000204496
:100250006F62726F646F736C692076206175746F62
:100260006D61746963206D6F64652D752E20497A08
:10027000626572697465207072766F207A61706F42
:100280007265646A653A200020497A626572697411
:100290006520647275676F207A61706F7265646A39
:1002A000653A200020497A6265726974652074722B
:1002B00065746A65207A61706F7265646A653A2058
:1002C000000020497A626572697465206365747202
:1002D000746F207A61706F7265646A653A200000FD
:1002E0000591003019F00E949901FACF08950F93FB
:1002F00002950F700A3008F0095F005D0E949901B5
:100300000F910F700A3008F0095F005D0E9499019B
:10031000089507E610E00093C4001093C50008E1BB
:100320000093C10006E00093C20000270093C000C4
:1003300008950F930091C00005FFFCCF0F9100932B
:10034000C60008950091C00007FFFCCF0091C600D1
:1003500008950F921F920F93039509F40A9513E3E2
:10036000019F1694012D1AE0119E1F9110191F90E4
:100370000F9008952F93212F11271F930E94A901F9
:1003800010631F932A95D1F70F91002B19F00E944B
:100390009901FACF2F910895FF93EF93DF93CF93B5
:1003A000BF93AF939F938F937F936F935F934F937D
:1003B0003F932F931F930F93FF92EF92DF92CF9271
:1003C000BF92AF929F928F927F926F925F924F9265
:1003D0003F922F921F920F92FEB7EDB720E2332784
:1003E000019102E70E949901032F339512E00E94C8
:1003F000BA010AE30E94990101910E94770100E28B
:100400000E9499010E949901032F077041F40DE0A9
:100410000E9499010AE00E9499010E9499012A957F
:1004200001F70F901F902F903F904F905F906F902B
:100430007F908F909F90AF90BF90CF90DF90EF9084
:10044000FF900F911F912F913F914F915F916F916D
:100450007F918F919F91AF91BF91CF91DF91EF915C
:04046000FF9108956B
:00000001FF
