:020000020000FC
:100000000E947000F0E0E8E100C050E0059100308F
:1000100099F10E948000F9CF20446F62726F646F83
:10002000736C6920762070726F6772616D61746F96
:10003000726A75206C75636B2E204E6170697369EE
:100040002070726F6772616D3A20000088945527A6
:100050001795179517950AE00E94800007E06FE05A
:1000600064B965B90E944D0055B90E94800000C076
:100070001AB900C01BB9C6CF533041F353950E9443
:1000800089000E948000013309F021F4089417953B
:100090008894F2CF88941795EFCF25E03FE042EFA8
:1000A0004A95F1F73A95E1F72A95D1F70895059128
:1000B000003019F00E948000FACF08950F93029546
:1000C0000F700A3008F0095F005D0E9480000F91F8
:1000D0000F700A3008F0095F005D0E9480000895EB
:1000E00007E610E00093C4001093C50008E10093F8
:1000F000C10006E00093C20000270093C0000895ED
:100100000F930091C00005FFFCCF0F910093C60034
:1001100008950091C00007FFFCCF0091C60008952C
:100120000F921F920F93039509F40A9513E3019F11
:100130001694012D1AE0119E1F9110191F900F9017
:1001400008952F93212F11271F930E949000106371
:100150001F932A95D1F70F91002B19F00E94800070
:10016000FACF2F910895FF93EF93DF93CF93BF932F
:10017000AF939F938F937F936F935F934F933F932F
:100180002F931F930F93FF92EF92DF92CF92BF9224
:10019000AF929F928F927F926F925F924F923F9217
:1001A0002F921F920F92FEB7EDB720E233270191F5
:1001B00002E70E948000032F339512E00E94A10005
:1001C0000AE30E94800001910E945E0000E20E940A
:1001D00080000E948000032F077041F40DE00E9410
:1001E00080000AE00E9480000E9480002A9501F7AA
:1001F0000F901F902F903F904F905F906F907F9047
:100200008F909F90AF90BF90CF90DF90EF90FF9036
:100210000F911F912F913F914F915F916F917F911E
:100220008F919F91AF91BF91CF91DF91EF91FF910E
:0202300008952F
:00000001FF
