:020000020000FC
:100000000E949E01F1E0EEEF00C050E0059100304B
:1000100019F00E94AE01F9CF0E94B7010E94AE0113
:100020000D3619F0013661F1EDCF0AE00E94AE0104
:1000300007E00E94AE01F2E0E8E400C00591003064
:1000400019F00E94AE01FACF533079F053950E9417
:10005000B7010E94AE01013309F021F4089417950D
:100060008894F2CF88941795EFCF889455271795E9
:100070001795179507E00E94AE011AB91BB9D5CFA5
:100080000AE00E94AE0107E00E94AE01F2E0E8E75C
:1000900000C050E00591003019F00E94AE01F9CF88
:1000A000533091F053950E94B7010E94AE01013385
:1000B00039F019F40AE00E94AE0188946795F0CFF8
:1000C000089467958894ECCF0AE00E94AE0107E09F
:1000D0000E94AE01F2E0E2EB00C050E0059100307A
:1000E000D1F10E94AE01F9CF0AE00E94AE0107E013
:1000F0000E94AE01F2E0EEEC00C050E0059100304D
:1001000019F00E94AE01F9CF5330A9F053950E9427
:10011000B7010E94AE01013339F051F40AE00E94A8
:10012000AE0107E00E94AE01089487958894ECCF59
:1001300088948795E9CF0AE00E94AE0107E00E940B
:10014000AE01F2E0ECEE00C050E005910030D1F0DD
:100150000E94AE01F9CF533039F253950E94B70196
:100160000E94AE01013351F031F40AE00E94AE0169
:1001700007E00E94AE0188947795EDCF08947795BB
:100180008894E9CF533059F053950E94B7010E94EB
:10019000AE01013311F129F50AE00E94AE01889405
:1001A000552767956795679577957795779587959F
:1001B00087958795979597959795ACE1AAB900C0D3
:1001C0006BB90E94F4007BB90E94F4008BB90E94C5
:1001D000F4009BB90E94F400F3CF0894979588949B
:1001E000D1CF88949795CECF25E13BE44FEB4A954C
:1001F000F1F73A95E1F72A95D1F7000008952044E8
:100200006F62726F646F736C6920762070726F67B3
:1002100072616D61746F726A75206C75636B2E20EC
:10022000497A62657269206D6F6465206D616E75D3
:10023000616C20616C69206175746F6D61746963B4
:10024000286D2F61293A200020446F62726F646F1D
:10025000736C692076206D616E75616C206D6F64C2
:10026000652D752E204E61706973697465207072FA
:100270006F6772616D3A200020446F62726F646F25
:10028000736C692076206175746F6D617469632089
:100290006D6F64652D752E20497A6265726974658B
:1002A000207072766F207A61706F7265646A653A49
:1002B000200020497A6265726974652064727567EE
:1002C0006F207A61706F7265646A653A2000204918
:1002D0007A62657269746520747265746A65207AE1
:1002E00061706F7265646A653A20000020497A6225
:1002F00065726974652063657472746F207A6170C9
:100300006F7265646A653A2000000591003019F04B
:100310000E94AE01FACF08950F9302950F700A3034
:1003200008F0095F005D0E94AE010F910F700A3066
:1003300008F0095F005D0E94AE01089507E610E035
:100340000093C4001093C50008E10093C10006E0CB
:100350000093C20000270093C00008950F930091FE
:10036000C00005FFFCCF0F910093C60008950091D7
:10037000C00007FFFCCF0091C60008950F921F92A6
:100380000F93039509F40A9513E3019F1694012D29
:100390001AE0119E1F9110191F900F9008952F932E
:1003A000212F11271F930E94BE0110631F932A95CE
:1003B000D1F70F91002B19F00E94AE01FACF2F91C7
:1003C0000895FF93EF93DF93CF93BF93AF939F93E2
:1003D0008F937F936F935F934F933F932F931F93CD
:1003E0000F93FF92EF92DF92CF92BF92AF929F92C4
:1003F0008F927F926F925F924F923F922F921F92B5
:100400000F92FEB7EDB720E23327019102E70E9479
:10041000AE01032F339512E00E94CF010AE30E9440
:10042000AE0101910E948C0100E20E94AE010E9487
:10043000AE01032F077041F40DE00E94AE010AE007
:100440000E94AE010E94AE012A9501F70F901F9005
:100450002F903F904F905F906F907F908F909F90E4
:10046000AF90BF90CF90DF90EF90FF900F911F91D2
:100470002F913F914F915F916F917F918F919F91BC
:0E048000AF91BF91CF91DF91EF91FF91089561
:00000001FF
