:020000020000FC
:100000000E947F01F1E0E0EC00C050E0059100307B
:1000100019F00E948F01F9CF0E9498010E948F0170
:100020000D3619F0013649F1EDCFF2E0EAE000C0FB
:100030000591003019F00E948F01FACF533079F00A
:1000400053950E9498010E948F01013309F021F419
:10005000089417958894F2CF88941795EFCF8894D9
:1000600055271795179517950AE00E948F0107E00D
:100070000E948F011AB91BB9D8CFF2E0EAE300C0A1
:1000800050E00591003019F00E948F01F9CF5330F4
:1000900091F053950E9498010E948F01013339F02D
:1000A00019F40AE00E948F0188946795F0CF0894B4
:1000B00067958894ECCFF2E0E4E700C050E005914A
:1000C000003059F10E948F01F9CFF2E0E0E900C061
:1000D00050E00591003019F00E948F01F9CF5330A4
:1000E00091F053950E9498010E948F01013321F0F5
:1000F00039F40AE00E948F01089487958894EFCF25
:1001000088948795ECCFF2E0EEEA00C050E00591CC
:100110000030B9F00E948F01F9CF5330B1F25395FE
:100120000E9498010E948F01013339F019F40AE00E
:100130000E948F0188947795F0CF089477958894E2
:10014000ECCF533059F053950E9498010E948F01D3
:10015000013321F139F50AE00E948F018894552777
:10016000679567956795779577957795879587953F
:10017000879597959795979500C06AB96BB90E9436
:10018000D5007AB97BB90E94D5008AB98BB90E9493
:10019000D5009AB99BB90E94D500EFCF08949795E6
:1001A0008894CFCF88949795CCCF25E13BE44FEB53
:1001B0004A95F1F73A95E1F72A95D1F700000895AD
:1001C00020446F62726F646F736C69207620707266
:1001D0006F6772616D61746F726A75206C75636BA5
:1001E0002E20497A62657269206D6F6465206D61A9
:1001F0006E75616C20616C69206175746F6D6174DE
:100200006963286D2F61293A200020446F62726F64
:10021000646F736C692076206D616E75616C206D02
:100220006F64652D752E204E617069736974652049
:1002300070726F6772616D3A200020446F62726F56
:10024000646F736C692076206175746F6D61746979
:1002500063206D6F64652D752E20497A6265726921
:100260007465207072766F207A61706F7265646A4F
:10027000653A200020497A6265726974652064726B
:1002800075676F207A61706F7265646A653A2000E5
:1002900020497A62657269746520747265746A6552
:1002A000207A61706F7265646A653A2000002049A7
:1002B0007A6265726974652063657472746F207AFE
:1002C00061706F7265646A653A20000005910030C4
:1002D00019F00E948F01FACF08950F9302950F70C5
:1002E0000A3008F0095F005D0E948F010F910F70C6
:1002F0000A3008F0095F005D0E948F01089507E64B
:1003000010E00093C4001093C50008E10093C10001
:1003100006E00093C20000270093C00008950F93E9
:100320000091C00005FFFCCF0F910093C600089517
:100330000091C00007FFFCCF0091C60008950F9206
:100340001F920F93039509F40A9513E3019F1694E6
:10035000012D1AE0119E1F9110191F900F90089502
:100360002F93212F11271F930E949F0110631F932A
:100370002A95D1F70F91002B19F00E948F01FACF27
:100380002F910895FF93EF93DF93CF93BF93AF9394
:100390009F938F937F936F935F934F933F932F938D
:1003A0001F930F93FF92EF92DF92CF92BF92AF9283
:1003B0009F928F927F926F925F924F923F922F9275
:1003C0001F920F92FEB7EDB720E23327019102E7AB
:1003D0000E948F01032F339512E00E94B0010AE3BF
:1003E0000E948F0101910E946D0100E20E948F0125
:1003F0000E948F01032F077041F40DE00E948F01CE
:100400000AE00E948F010E948F012A9501F70F9048
:100410001F902F903F904F905F906F907F908F90A4
:100420009F90AF90BF90CF90DF90EF90FF900F9193
:100430001F912F913F914F915F916F917F918F917C
:100440009F91AF91BF91CF91DF91EF91FF9108956F
:00000001FF
