:020000020000FC
:100000000E94AF00F0E0E2EA00C050E0059100304D
:10001000A9F00E94BF00F9CFF0E0ECEE00C005911E
:100020000030A9F00E94BF00FACFF1E0ECE100C07F
:100030000591003039F30E94BF00FACF0E94C8003A
:100040000E94BF000D3641F3013679F3DBCF533008
:1000500041F053950E94C8000E94BF00013379F01F
:1000600091F4889455271795179517950AE00E94E3
:10007000BF0007E00E94BF001AB91BB9CDCF08949A
:1000800017958894E4CF88941795E1CF25E13BE458
:100090004FEB4A95F1F73A95E1F72A95D1F7000031
:1000A000089520446F62726F646F736C69207620CC
:1000B00070726F6772616D61746F726A75206C75B2
:1000C000636B2E20497A62657269206D6F646520CA
:1000D0006D616E75616C20616C69206175746F6D06
:1000E00061746963286D2F61293A200020446F6292
:1000F000726F646F736C692076206D616E75616CD0
:10010000206D6F64652D752E204E61706973697462
:10011000652070726F6772616D3A200020436F6DC9
:10012000696E6720736F6F6E2120000005910030AB
:1001300019F00E94BF00FACF08950F9302950F7037
:100140000A3008F0095F005D0E94BF000F910F7038
:100150000A3008F0095F005D0E94BF00089507E6BD
:1001600010E00093C4001093C50008E10093C100A3
:1001700006E00093C20000270093C00008950F938B
:100180000091C00005FFFCCF0F910093C6000895B9
:100190000091C00007FFFCCF0091C60008950F92A8
:1001A0001F920F93039509F40A9513E3019F169488
:1001B000012D1AE0119E1F9110191F900F900895A4
:1001C0002F93212F11271F930E94CF0010631F939D
:1001D0002A95D1F70F91002B19F00E94BF00FACF9A
:1001E0002F910895FF93EF93DF93CF93BF93AF9336
:1001F0009F938F937F936F935F934F933F932F932F
:100200001F930F93FF92EF92DF92CF92BF92AF9224
:100210009F928F927F926F925F924F923F922F9216
:100220001F920F92FEB7EDB720E23327019102E74C
:100230000E94BF00032F339512E00E94E0000AE302
:100240000E94BF0001910E949D0000E20E94BF0039
:100250000E94BF00032F077041F40DE00E94BF0011
:100260000AE00E94BF000E94BF002A9501F70F908C
:100270001F902F903F904F905F906F907F908F9046
:100280009F90AF90BF90CF90DF90EF90FF900F9135
:100290001F912F913F914F915F916F917F918F911E
:1002A0009F91AF91BF91CF91DF91EF91FF91089511
:00000001FF
